{
  "_format": "hh-sol-artifact-1",
  "contractName": "VotingContract",
  "sourceName": "contracts/voting_contract.sol",
  "abi": [
    {
      "inputs": [
        {
          "internalType": "string",
          "name": "name",
          "type": "string"
        }
      ],
      "name": "addCandidates",
      "outputs": [],
      "stateMutability": "nonpayable",
      "type": "function"
    },
    {
      "inputs": [
        {
          "internalType": "uint256",
          "name": "",
          "type": "uint256"
        }
      ],
      "name": "candidates",
      "outputs": [
        {
          "internalType": "uint256",
          "name": "id",
          "type": "uint256"
        },
        {
          "internalType": "string",
          "name": "name",
          "type": "string"
        },
        {
          "internalType": "uint256",
          "name": "voteCount",
          "type": "uint256"
        }
      ],
      "stateMutability": "view",
      "type": "function"
    },
    {
      "inputs": [],
      "name": "candidatesCount",
      "outputs": [
        {
          "internalType": "uint256",
          "name": "",
          "type": "uint256"
        }
      ],
      "stateMutability": "view",
      "type": "function"
    },
    {
      "inputs": [
        {
          "internalType": "uint256",
          "name": "_candidateId",
          "type": "uint256"
        }
      ],
      "name": "getCandidate",
      "outputs": [
        {
          "internalType": "uint256",
          "name": "",
          "type": "uint256"
        },
        {
          "internalType": "string",
          "name": "",
          "type": "string"
        },
        {
          "internalType": "uint256",
          "name": "",
          "type": "uint256"
        }
      ],
      "stateMutability": "view",
      "type": "function"
    },
    {
      "inputs": [],
      "name": "getCandidates",
      "outputs": [
        {
          "components": [
            {
              "internalType": "uint256",
              "name": "id",
              "type": "uint256"
            },
            {
              "internalType": "string",
              "name": "name",
              "type": "string"
            },
            {
              "internalType": "uint256",
              "name": "voteCount",
              "type": "uint256"
            }
          ],
          "internalType": "struct VotingContract.Candidate[]",
          "name": "",
          "type": "tuple[]"
        }
      ],
      "stateMutability": "view",
      "type": "function"
    },
    {
      "inputs": [],
      "name": "getCandidatesCount",
      "outputs": [
        {
          "internalType": "uint256",
          "name": "",
          "type": "uint256"
        }
      ],
      "stateMutability": "view",
      "type": "function"
    },
    {
      "inputs": [
        {
          "internalType": "address",
          "name": "_address",
          "type": "address"
        }
      ],
      "name": "getHasVoted",
      "outputs": [
        {
          "internalType": "bool",
          "name": "",
          "type": "bool"
        }
      ],
      "stateMutability": "view",
      "type": "function"
    },
    {
      "inputs": [
        {
          "internalType": "uint256",
          "name": "_candidateId",
          "type": "uint256"
        }
      ],
      "name": "getVoteCount",
      "outputs": [
        {
          "internalType": "uint256",
          "name": "",
          "type": "uint256"
        }
      ],
      "stateMutability": "view",
      "type": "function"
    },
    {
      "inputs": [
        {
          "internalType": "address",
          "name": "",
          "type": "address"
        }
      ],
      "name": "hasVoted",
      "outputs": [
        {
          "internalType": "bool",
          "name": "",
          "type": "bool"
        }
      ],
      "stateMutability": "view",
      "type": "function"
    },
    {
      "inputs": [
        {
          "internalType": "uint256",
          "name": "_candidateId",
          "type": "uint256"
        }
      ],
      "name": "vote",
      "outputs": [],
      "stateMutability": "nonpayable",
      "type": "function"
    }
  ],
  "bytecode": "0x608060405234801561001057600080fd5b50611273806100206000396000f3fe608060405234801561001057600080fd5b506004361061009e5760003560e01c806335b8e8201161006657806335b8e8201461015d57806362604e961461018f5780636de8bcb9146101ab578063b2c2f2e8146101db578063bb9aa28f1461020b5761009e565b80630121b93f146100a357806306a49fce146100bf57806309eef43e146100dd5780632d35a8a21461010d5780633477ee2e1461012b575b600080fd5b6100bd60048036038101906100b891906108bc565b610229565b005b6100c761038c565b6040516100d49190610a9a565b60405180910390f35b6100f760048036038101906100f29190610b1a565b610500565b6040516101049190610b62565b60405180910390f35b610115610520565b6040516101229190610b8c565b60405180910390f35b610145600480360381019061014091906108bc565b610526565b60405161015493929190610bf1565b60405180910390f35b610177600480360381019061017291906108bc565b6105d8565b60405161018693929190610bf1565b60405180910390f35b6101a960048036038101906101a49190610d64565b610708565b005b6101c560048036038101906101c09190610b1a565b610782565b6040516101d29190610b62565b60405180910390f35b6101f560048036038101906101f091906108bc565b6107d8565b6040516102029190610b8c565b60405180910390f35b610213610847565b6040516102209190610b8c565b60405180910390f35b600160003373ffffffffffffffffffffffffffffffffffffffff1673ffffffffffffffffffffffffffffffffffffffff16815260200190815260200160002060009054906101000a900460ff16156102b6576040517f08c379a00000000000000000000000000000000000000000000000000000000081526004016102ad90610df9565b60405180910390fd5b6000811180156102c857506002548111155b610307576040517f08c379a00000000000000000000000000000000000000000000000000000000081526004016102fe90610e65565b60405180910390fd5b600080828152602001908152602001600020600201600081548092919061032d90610eb4565b919050555060018060003373ffffffffffffffffffffffffffffffffffffffff1673ffffffffffffffffffffffffffffffffffffffff16815260200190815260200160002060006101000a81548160ff02191690831515021790555050565b6060600060025467ffffffffffffffff8111156103ac576103ab610c39565b5b6040519080825280602002602001820160405280156103e557816020015b6103d2610851565b8152602001906001900390816103ca5790505b5090506000600190505b60025481116104f8576000808281526020019081526020016000206040518060600160405290816000820154815260200160018201805461042f90610f2b565b80601f016020809104026020016040519081016040528092919081815260200182805461045b90610f2b565b80156104a85780601f1061047d576101008083540402835291602001916104a8565b820191906000526020600020905b81548152906001019060200180831161048b57829003601f168201915b50505050508152602001600282015481525050826001836104c99190610f5c565b815181106104da576104d9610f90565b5b602002602001018190525080806104f090610eb4565b9150506103ef565b508091505090565b60016020528060005260406000206000915054906101000a900460ff1681565b60025481565b600060205280600052604060002060009150905080600001549080600101805461054f90610f2b565b80601f016020809104026020016040519081016040528092919081815260200182805461057b90610f2b565b80156105c85780601f1061059d576101008083540402835291602001916105c8565b820191906000526020600020905b8154815290600101906020018083116105ab57829003601f168201915b5050505050908060020154905083565b60006060600080841180156105ef57506002548411155b61062e576040517f08c379a000000000000000000000000000000000000000000000000000000000815260040161062590610e65565b60405180910390fd5b600080858152602001908152602001600020600001546000808681526020019081526020016000206001016000808781526020019081526020016000206002015481805461067b90610f2b565b80601f01602080910402602001604051908101604052809291908181526020018280546106a790610f2b565b80156106f45780601f106106c9576101008083540402835291602001916106f4565b820191906000526020600020905b8154815290600101906020018083116106d757829003601f168201915b505050505091509250925092509193909250565b6002600081548092919061071b90610eb4565b91905055506040518060600160405280600254815260200182815260200160008152506000806002548152602001908152602001600020600082015181600001556020820151816001019081610771919061116b565b506040820151816002015590505050565b6000600160008373ffffffffffffffffffffffffffffffffffffffff1673ffffffffffffffffffffffffffffffffffffffff16815260200190815260200160002060009054906101000a900460ff169050919050565b600080821180156107eb57506002548211155b61082a576040517f08c379a000000000000000000000000000000000000000000000000000000000815260040161082190610e65565b60405180910390fd5b600080838152602001908152602001600020600201549050919050565b6000600254905090565b60405180606001604052806000815260200160608152602001600081525090565b6000604051905090565b600080fd5b600080fd5b6000819050919050565b61089981610886565b81146108a457600080fd5b50565b6000813590506108b681610890565b92915050565b6000602082840312156108d2576108d161087c565b5b60006108e0848285016108a7565b91505092915050565b600081519050919050565b600082825260208201905092915050565b6000819050602082019050919050565b61091e81610886565b82525050565b600081519050919050565b600082825260208201905092915050565b60005b8381101561095e578082015181840152602081019050610943565b60008484015250505050565b6000601f19601f8301169050919050565b600061098682610924565b610990818561092f565b93506109a0818560208601610940565b6109a98161096a565b840191505092915050565b60006060830160008301516109cc6000860182610915565b50602083015184820360208601526109e4828261097b565b91505060408301516109f96040860182610915565b508091505092915050565b6000610a1083836109b4565b905092915050565b6000602082019050919050565b6000610a30826108e9565b610a3a81856108f4565b935083602082028501610a4c85610905565b8060005b85811015610a885784840389528151610a698582610a04565b9450610a7483610a18565b925060208a01995050600181019050610a50565b50829750879550505050505092915050565b60006020820190508181036000830152610ab48184610a25565b905092915050565b600073ffffffffffffffffffffffffffffffffffffffff82169050919050565b6000610ae782610abc565b9050919050565b610af781610adc565b8114610b0257600080fd5b50565b600081359050610b1481610aee565b92915050565b600060208284031215610b3057610b2f61087c565b5b6000610b3e84828501610b05565b91505092915050565b60008115159050919050565b610b5c81610b47565b82525050565b6000602082019050610b776000830184610b53565b92915050565b610b8681610886565b82525050565b6000602082019050610ba16000830184610b7d565b92915050565b600082825260208201905092915050565b6000610bc382610924565b610bcd8185610ba7565b9350610bdd818560208601610940565b610be68161096a565b840191505092915050565b6000606082019050610c066000830186610b7d565b8181036020830152610c188185610bb8565b9050610c276040830184610b7d565b949350505050565b600080fd5b600080fd5b7f4e487b7100000000000000000000000000000000000000000000000000000000600052604160045260246000fd5b610c718261096a565b810181811067ffffffffffffffff82111715610c9057610c8f610c39565b5b80604052505050565b6000610ca3610872565b9050610caf8282610c68565b919050565b600067ffffffffffffffff821115610ccf57610cce610c39565b5b610cd88261096a565b9050602081019050919050565b82818337600083830152505050565b6000610d07610d0284610cb4565b610c99565b905082815260208101848484011115610d2357610d22610c34565b5b610d2e848285610ce5565b509392505050565b600082601f830112610d4b57610d4a610c2f565b5b8135610d5b848260208601610cf4565b91505092915050565b600060208284031215610d7a57610d7961087c565b5b600082013567ffffffffffffffff811115610d9857610d97610881565b5b610da484828501610d36565b91505092915050565b7f596f75206861766520616c726561647920766f74656400000000000000000000600082015250565b6000610de3601683610ba7565b9150610dee82610dad565b602082019050919050565b60006020820190508181036000830152610e1281610dd6565b9050919050565b7f496e76616c69642063616e646964617465000000000000000000000000000000600082015250565b6000610e4f601183610ba7565b9150610e5a82610e19565b602082019050919050565b60006020820190508181036000830152610e7e81610e42565b9050919050565b7f4e487b7100000000000000000000000000000000000000000000000000000000600052601160045260246000fd5b6000610ebf82610886565b91507fffffffffffffffffffffffffffffffffffffffffffffffffffffffffffffffff8203610ef157610ef0610e85565b5b600182019050919050565b7f4e487b7100000000000000000000000000000000000000000000000000000000600052602260045260246000fd5b60006002820490506001821680610f4357607f821691505b602082108103610f5657610f55610efc565b5b50919050565b6000610f6782610886565b9150610f7283610886565b9250828203905081811115610f8a57610f89610e85565b5b92915050565b7f4e487b7100000000000000000000000000000000000000000000000000000000600052603260045260246000fd5b60008190508160005260206000209050919050565b60006020601f8301049050919050565b600082821b905092915050565b6000600883026110217fffffffffffffffffffffffffffffffffffffffffffffffffffffffffffffffff82610fe4565b61102b8683610fe4565b95508019841693508086168417925050509392505050565b6000819050919050565b600061106861106361105e84610886565b611043565b610886565b9050919050565b6000819050919050565b6110828361104d565b61109661108e8261106f565b848454610ff1565b825550505050565b600090565b6110ab61109e565b6110b6818484611079565b505050565b5b818110156110da576110cf6000826110a3565b6001810190506110bc565b5050565b601f82111561111f576110f081610fbf565b6110f984610fd4565b81016020851015611108578190505b61111c61111485610fd4565b8301826110bb565b50505b505050565b600082821c905092915050565b600061114260001984600802611124565b1980831691505092915050565b600061115b8383611131565b9150826002028217905092915050565b61117482610924565b67ffffffffffffffff81111561118d5761118c610c39565b5b6111978254610f2b565b6111a28282856110de565b600060209050601f8311600181146111d557600084156111c3578287015190505b6111cd858261114f565b865550611235565b601f1984166111e386610fbf565b60005b8281101561120b578489015182556001820191506020850194506020810190506111e6565b868310156112285784890151611224601f891682611131565b8355505b6001600288020188555050505b50505050505056fea264697066735822122053373723ab68818f09dcfadc13fb21270e0d2bcca0250bad90df0d0728bc7db564736f6c63430008180033",
  "linkReferences": {},
  "deployedLinkReferences": {}
}